{
  "abi": [
    {
      "inputs": [
        {
          "internalType": "address",
          "name": "a",
          "type": "address"
        },
        {
          "internalType": "bytes",
          "name": "_calldata",
          "type": "bytes"
        }
      ],
      "name": "callContract",
      "outputs": [
        {
          "internalType": "bytes",
          "name": "",
          "type": "bytes"
        }
      ],
      "stateMutability": "payable",
      "type": "function"
    },
    {
      "inputs": [
        {
          "internalType": "address",
          "name": "a",
          "type": "address"
        },
        {
          "internalType": "bytes",
          "name": "_calldata",
          "type": "bytes"
        }
      ],
      "name": "delegatecallContract",
      "outputs": [
        {
          "internalType": "bytes",
          "name": "",
          "type": "bytes"
        }
      ],
      "stateMutability": "payable",
      "type": "function"
    }
  ],
  "bytecode": {
    "object": "0x608060405234801561001057600080fd5b5061026a806100206000396000f3fe6080604052600436106100295760003560e01c8063037106681461002e5780633d38ae7614610057575b600080fd5b61004161003c36600461013e565b61006a565b60405161004e91906101cf565b60405180910390f35b61004161006536600461013e565b6100e4565b6060600080856001600160a01b031634868660405161008a929190610224565b60006040518083038185875af1925050503d80600081146100c7576040519150601f19603f3d011682016040523d82523d6000602084013e6100cc565b606091505b5091509150816100db57600080fd5b95945050505050565b6060600080856001600160a01b03168585604051610103929190610224565b600060405180830381855af49150503d80600081146100c7576040519150601f19603f3d011682016040523d82523d6000602084013e6100cc565b60008060006040848603121561015357600080fd5b83356001600160a01b038116811461016a57600080fd5b9250602084013567ffffffffffffffff8082111561018757600080fd5b818601915086601f83011261019b57600080fd5b8135818111156101aa57600080fd5b8760208285010111156101bc57600080fd5b6020830194508093505050509250925092565b600060208083528351808285015260005b818110156101fc578581018301518582016040015282016101e0565b8181111561020e576000604083870101525b50601f01601f1916929092016040019392505050565b818382376000910190815291905056fea26469706673582212204faf251f799ecd5460039b39513e9a6d25738dc7f6e29cce992e5c3b0d093efe64736f6c634300080a0033",
    "linkReferences": {}
  },
  "methodIdentifiers": {
    "callContract(address,bytes)": "03710668",
    "delegatecallContract(address,bytes)": "3d38ae76"
  },
  "id": 8
}