{
  "abi": [
    {
      "inputs": [
        {
          "internalType": "address",
          "name": "_implementation",
          "type": "address"
        },
        {
          "internalType": "address",
          "name": "_owner",
          "type": "address"
        }
      ],
      "stateMutability": "nonpayable",
      "type": "constructor"
    },
    {
      "stateMutability": "payable",
      "type": "fallback"
    },
    {
      "inputs": [],
      "name": "implementation",
      "outputs": [
        {
          "internalType": "address",
          "name": "",
          "type": "address"
        }
      ],
      "stateMutability": "view",
      "type": "function"
    },
    {
      "inputs": [],
      "name": "owner",
      "outputs": [
        {
          "internalType": "address",
          "name": "",
          "type": "address"
        }
      ],
      "stateMutability": "view",
      "type": "function"
    },
    {
      "stateMutability": "payable",
      "type": "receive"
    }
  ],
  "bytecode": {
    "object": "0x60a060405234801561001057600080fd5b5060405161023d38038061023d83398101604081905261002f91610076565b6001600160a01b03908116608052600080546001600160a01b031916929091169190911790556100a9565b80516001600160a01b038116811461007157600080fd5b919050565b6000806040838503121561008957600080fd5b6100928361005a565b91506100a06020840161005a565b90509250929050565b6080516101736100ca60003960008181603f015261011b01526101736000f3fe60806040526004361061002d5760003560e01c80635c60da1b146100cd5780638da5cb5b1461010957610034565b3661003457005b336001600160a01b037f0000000000000000000000000000000000000000000000000000000000000000161461009c5760405162461bcd60e51b81526020600482015260096024820152682737ba1037bbb732b960b91b604482015260640160405180910390fd5b600080546001600160a01b03169036908037600080366000845af43d6000803e8080156100c8573d6000f35b3d6000fd5b3480156100d957600080fd5b506000546100ed906001600160a01b031681565b6040516001600160a01b03909116815260200160405180910390f35b34801561011557600080fd5b506100ed7f00000000000000000000000000000000000000000000000000000000000000008156fea26469706673582212202a3c12b3113a88e8445dafa0e7fa696feebfd4c384e404c16b35b617fc5bb2dc64736f6c634300080a0033",
    "linkReferences": {}
  },
  "methodIdentifiers": {
    "implementation()": "5c60da1b",
    "owner()": "8da5cb5b"
  },
  "id": 9
}