{
  "abi": [
    {
      "inputs": [
        {
          "internalType": "address",
          "name": "_to",
          "type": "address"
        }
      ],
      "name": "destroy",
      "outputs": [],
      "stateMutability": "nonpayable",
      "type": "function"
    },
    {
      "inputs": [],
      "name": "getSender",
      "outputs": [
        {
          "internalType": "address",
          "name": "",
          "type": "address"
        }
      ],
      "stateMutability": "view",
      "type": "function"
    }
  ],
  "bytecode": {
    "object": "0x608060405234801561001057600080fd5b5060ca8061001f6000396000f3fe6080604052348015600f57600080fd5b506004361060315760003560e01c8062f55d9d1460365780635e01eb5a146047575b600080fd5b604560413660046066565b605a565b005b6040805133815290519081900360200190f35b806001600160a01b0316ff5b600060208284031215607757600080fd5b81356001600160a01b0381168114608d57600080fd5b939250505056fea26469706673582212202bbfe1c7832d1e0da82ee93bf1a0530483e12eff03b321e23a27e5996ca73cf664736f6c634300080a0033",
    "linkReferences": {}
  },
  "methodIdentifiers": {
    "destroy(address)": "00f55d9d",
    "getSender()": "5e01eb5a"
  },
  "id": 8
}